{
  "contractName": "DYLANSwap",
  "abi": [
    {
      "constant": true,
      "inputs": [
        {
          "name": "a",
          "type": "uint256"
        },
        {
          "name": "b",
          "type": "uint256"
        }
      ],
      "name": "safeSub",
      "outputs": [
        {
          "name": "c",
          "type": "uint256"
        }
      ],
      "payable": false,
      "stateMutability": "pure",
      "type": "function"
    },
    {
      "constant": true,
      "inputs": [
        {
          "name": "a",
          "type": "uint256"
        },
        {
          "name": "b",
          "type": "uint256"
        }
      ],
      "name": "safeDiv",
      "outputs": [
        {
          "name": "c",
          "type": "uint256"
        }
      ],
      "payable": false,
      "stateMutability": "pure",
      "type": "function"
    },
    {
      "constant": true,
      "inputs": [
        {
          "name": "a",
          "type": "uint256"
        },
        {
          "name": "b",
          "type": "uint256"
        }
      ],
      "name": "safeMul",
      "outputs": [
        {
          "name": "c",
          "type": "uint256"
        }
      ],
      "payable": false,
      "stateMutability": "pure",
      "type": "function"
    },
    {
      "constant": true,
      "inputs": [
        {
          "name": "a",
          "type": "uint256"
        },
        {
          "name": "b",
          "type": "uint256"
        }
      ],
      "name": "safeAdd",
      "outputs": [
        {
          "name": "c",
          "type": "uint256"
        }
      ],
      "payable": false,
      "stateMutability": "pure",
      "type": "function"
    },
    {
      "inputs": [
        {
          "name": "demula",
          "type": "address"
        }
      ],
      "payable": false,
      "stateMutability": "nonpayable",
      "type": "constructor"
    },
    {
      "payable": true,
      "stateMutability": "payable",
      "type": "fallback"
    },
    {
      "constant": false,
      "inputs": [
        {
          "name": "dylanSwaplp",
          "type": "address"
        }
      ],
      "name": "SetLPAddress",
      "outputs": [
        {
          "name": "success",
          "type": "bool"
        }
      ],
      "payable": false,
      "stateMutability": "nonpayable",
      "type": "function"
    },
    {
      "constant": true,
      "inputs": [],
      "name": "DEMLiquidity",
      "outputs": [
        {
          "name": "",
          "type": "uint256"
        }
      ],
      "payable": false,
      "stateMutability": "view",
      "type": "function"
    },
    {
      "constant": true,
      "inputs": [],
      "name": "ETHLiquidity",
      "outputs": [
        {
          "name": "",
          "type": "uint256"
        }
      ],
      "payable": false,
      "stateMutability": "view",
      "type": "function"
    },
    {
      "constant": false,
      "inputs": [
        {
          "name": "user",
          "type": "address"
        },
        {
          "name": "DEMAmount",
          "type": "uint256"
        }
      ],
      "name": "CreateLiquidity",
      "outputs": [
        {
          "name": "success",
          "type": "bool"
        }
      ],
      "payable": false,
      "stateMutability": "nonpayable",
      "type": "function"
    },
    {
      "constant": false,
      "inputs": [
        {
          "name": "user",
          "type": "address"
        },
        {
          "name": "ETHAmount",
          "type": "uint256"
        }
      ],
      "name": "AddLiquidity",
      "outputs": [
        {
          "name": "success",
          "type": "bool"
        }
      ],
      "payable": false,
      "stateMutability": "nonpayable",
      "type": "function"
    },
    {
      "constant": false,
      "inputs": [
        {
          "name": "user",
          "type": "address"
        },
        {
          "name": "percent",
          "type": "uint256"
        }
      ],
      "name": "RemoveLiquidity",
      "outputs": [
        {
          "name": "success",
          "type": "bool"
        }
      ],
      "payable": false,
      "stateMutability": "nonpayable",
      "type": "function"
    },
    {
      "constant": false,
      "inputs": [
        {
          "name": "user",
          "type": "address"
        },
        {
          "name": "DEMAmount",
          "type": "uint256"
        }
      ],
      "name": "DEMToETH",
      "outputs": [
        {
          "name": "success",
          "type": "bool"
        }
      ],
      "payable": false,
      "stateMutability": "nonpayable",
      "type": "function"
    },
    {
      "constant": false,
      "inputs": [
        {
          "name": "user",
          "type": "address"
        },
        {
          "name": "ETHAmount",
          "type": "uint256"
        }
      ],
      "name": "ETHToDEM",
      "outputs": [
        {
          "name": "success",
          "type": "bool"
        }
      ],
      "payable": false,
      "stateMutability": "nonpayable",
      "type": "function"
    },
    {
      "constant": false,
      "inputs": [
        {
          "name": "newOwner",
          "type": "address"
        }
      ],
      "name": "transferOwnership",
      "outputs": [
        {
          "name": "success",
          "type": "bool"
        }
      ],
      "payable": false,
      "stateMutability": "nonpayable",
      "type": "function"
    },
    {
      "constant": true,
      "inputs": [],
      "name": "Owner",
      "outputs": [
        {
          "name": "",
          "type": "address"
        }
      ],
      "payable": false,
      "stateMutability": "view",
      "type": "function"
    },
    {
      "constant": true,
      "inputs": [],
      "name": "demula",
      "outputs": [
        {
          "name": "",
          "type": "address"
        }
      ],
      "payable": false,
      "stateMutability": "view",
      "type": "function"
    },
    {
      "constant": true,
      "inputs": [],
      "name": "dylanSwapLP",
      "outputs": [
        {
          "name": "",
          "type": "address"
        }
      ],
      "payable": false,
      "stateMutability": "view",
      "type": "function"
    }
  ],
  "bytecode": "0x608060405234801561001057600080fd5b50604051602080611e8b83398101806040528101908080519060200190929190505050336000806101000a81548173ffffffffffffffffffffffffffffffffffffffff021916908373ffffffffffffffffffffffffffffffffffffffff16021790555080600160006101000a81548173ffffffffffffffffffffffffffffffffffffffff021916908373ffffffffffffffffffffffffffffffffffffffff16021790555069d3c21bcecceda100000060038190555050611db6806100d56000396000f3006080604052600436106100e6576000357c0100000000000000000000000000000000000000000000000000000000900463ffffffff1680631387669c146100e85780631fb3a1451461011357806325c7bfa31461017857806360440836146101cf578063624cccaa146102345780638c60a25a1461028b578063a293d1e8146102e6578063b4a99a4e14610331578063b5931f7c14610388578063b91d3f6b146103d3578063bb37879e146103fe578063d05c78da14610463578063dfdd120d146104ae578063e5ba9bba14610513578063e6cb901314610578578063f2fde38b146105c3575b005b3480156100f457600080fd5b506100fd61061e565b6040518082815260200191505060405180910390f35b34801561011f57600080fd5b5061015e600480360381019080803573ffffffffffffffffffffffffffffffffffffffff1690602001909291908035906020019092919050505061063d565b604051808215151515815260200191505060405180910390f35b34801561018457600080fd5b5061018d61095e565b604051808273ffffffffffffffffffffffffffffffffffffffff1673ffffffffffffffffffffffffffffffffffffffff16815260200191505060405180910390f35b3480156101db57600080fd5b5061021a600480360381019080803573ffffffffffffffffffffffffffffffffffffffff16906020019092919080359060200190929190505050610988565b604051808215151515815260200191505060405180910390f35b34801561024057600080fd5b50610249610e3a565b604051808273ffffffffffffffffffffffffffffffffffffffff1673ffffffffffffffffffffffffffffffffffffffff16815260200191505060405180910390f35b34801561029757600080fd5b506102cc600480360381019080803573ffffffffffffffffffffffffffffffffffffffff169060200190929190505050610e64565b604051808215151515815260200191505060405180910390f35b3480156102f257600080fd5b5061031b6004803603810190808035906020019092919080359060200190929190505050610f50565b6040518082815260200191505060405180910390f35b34801561033d57600080fd5b50610346610f6c565b604051808273ffffffffffffffffffffffffffffffffffffffff1673ffffffffffffffffffffffffffffffffffffffff16815260200191505060405180910390f35b34801561039457600080fd5b506103bd6004803603810190808035906020019092919080359060200190929190505050610f95565b6040518082815260200191505060405180910390f35b3480156103df57600080fd5b506103e8610fb9565b6040518082815260200191505060405180910390f35b34801561040a57600080fd5b50610449600480360381019080803573ffffffffffffffffffffffffffffffffffffffff169060200190929190803590602001909291905050506110b8565b604051808215151515815260200191505060405180910390f35b34801561046f57600080fd5b506104986004803603810190808035906020019092919080359060200190929190505050611414565b6040518082815260200191505060405180910390f35b3480156104ba57600080fd5b506104f9600480360381019080803573ffffffffffffffffffffffffffffffffffffffff16906020019092919080359060200190929190505050611445565b604051808215151515815260200191505060405180910390f35b34801561051f57600080fd5b5061055e600480360381019080803573ffffffffffffffffffffffffffffffffffffffff16906020019092919080359060200190929190505050611a0c565b604051808215151515815260200191505060405180910390f35b34801561058457600080fd5b506105ad6004803603810190808035906020019092919080359060200190929190505050611c5f565b6040518082815260200191505060405180910390f35b3480156105cf57600080fd5b50610604600480360381019080803573ffffffffffffffffffffffffffffffffffffffff169060200190929190505050611c7b565b604051808215151515815260200191505060405180910390f35b60003073ffffffffffffffffffffffffffffffffffffffff1631905090565b60008061066c8361066761065a61065261061e565b600354611414565b610662610fb9565b610f95565b611414565b905061067661061e565b61068282600354610f95565b1015156106f7576040517f08c379a00000000000000000000000000000000000000000000000000000000081526004018080602001828103825260178152602001807f496e73756666696369656e74204c69717569646974792100000000000000000081525060200191505060405180910390fd5b600160009054906101000a900473ffffffffffffffffffffffffffffffffffffffff1673ffffffffffffffffffffffffffffffffffffffff166323b872dd8530866040518463ffffffff167c0100000000000000000000000000000000000000000000000000000000028152600401808473ffffffffffffffffffffffffffffffffffffffff1673ffffffffffffffffffffffffffffffffffffffff1681526020018373ffffffffffffffffffffffffffffffffffffffff1673ffffffffffffffffffffffffffffffffffffffff1681526020018281526020019350505050602060405180830381600087803b1580156107f057600080fd5b505af1158015610804573d6000803e3d6000fd5b505050506040513d602081101561081a57600080fd5b8101908080519060200190929190505050151561089f576040517f08c379a000000000000000000000000000000000000000000000000000000000815260040180806020018281038252601a8152602001807f44656d756c61205472616e73616374696f6e204661696c65642100000000000081525060200191505060405180910390fd5b8373ffffffffffffffffffffffffffffffffffffffff166108fc6108c583600354610f95565b9081150290604051600060405180830381858888f193505050501515610953576040517f08c379a000000000000000000000000000000000000000000000000000000000815260040180806020018281038252601c8152602001807f457468657265756d205472616e73616374696f6e204661696c6564210000000081525060200191505060405180910390fd5b600191505092915050565b6000600260009054906101000a900473ffffffffffffffffffffffffffffffffffffffff16905090565b600080610999836305f5e100610f50565b9050600160009054906101000a900473ffffffffffffffffffffffffffffffffffffffff1673ffffffffffffffffffffffffffffffffffffffff166323b872dd8530866040518463ffffffff167c0100000000000000000000000000000000000000000000000000000000028152600401808473ffffffffffffffffffffffffffffffffffffffff1673ffffffffffffffffffffffffffffffffffffffff1681526020018373ffffffffffffffffffffffffffffffffffffffff1673ffffffffffffffffffffffffffffffffffffffff1681526020018281526020019350505050602060405180830381600087803b158015610a9457600080fd5b505af1158015610aa8573d6000803e3d6000fd5b505050506040513d6020811015610abe57600080fd5b81019080805190602001909291905050501515610b43576040517f08c379a000000000000000000000000000000000000000000000000000000000815260040180806020018281038252601a8152602001807f44656d756c61205472616e73616374696f6e204661696c65642100000000000081525060200191505060405180910390fd5b600260009054906101000a900473ffffffffffffffffffffffffffffffffffffffff1673ffffffffffffffffffffffffffffffffffffffff166340c10f19306305f5e1006040518363ffffffff167c0100000000000000000000000000000000000000000000000000000000028152600401808373ffffffffffffffffffffffffffffffffffffffff1673ffffffffffffffffffffffffffffffffffffffff16815260200182815260200192505050602060405180830381600087803b158015610c0c57600080fd5b505af1158015610c20573d6000803e3d6000fd5b505050506040513d6020811015610c3657600080fd5b81019080805190602001909291905050501515610cbb576040517f08c379a000000000000000000000000000000000000000000000000000000000815260040180806020018281038252601d8152602001807f4c50205472616e73616374696f6e20506172742031204661696c65642100000081525060200191505060405180910390fd5b600260009054906101000a900473ffffffffffffffffffffffffffffffffffffffff1673ffffffffffffffffffffffffffffffffffffffff166340c10f1985836040518363ffffffff167c0100000000000000000000000000000000000000000000000000000000028152600401808373ffffffffffffffffffffffffffffffffffffffff1673ffffffffffffffffffffffffffffffffffffffff16815260200182815260200192505050602060405180830381600087803b158015610d8057600080fd5b505af1158015610d94573d6000803e3d6000fd5b505050506040513d6020811015610daa57600080fd5b81019080805190602001909291905050501515610e2f576040517f08c379a000000000000000000000000000000000000000000000000000000000815260040180806020018281038252601d8152602001807f4c50205472616e73616374696f6e20506172742032204661696c65642100000081525060200191505060405180910390fd5b600191505092915050565b6000600160009054906101000a900473ffffffffffffffffffffffffffffffffffffffff16905090565b6000600260149054906101000a900460ff16151515610eeb576040517f08c379a000000000000000000000000000000000000000000000000000000000815260040180806020018281038252600f8152602001807f4c5020416c72656164792053657421000000000000000000000000000000000081525060200191505060405180910390fd5b81600260006101000a81548173ffffffffffffffffffffffffffffffffffffffff021916908373ffffffffffffffffffffffffffffffffffffffff1602179055506001600260146101000a81548160ff02191690831515021790555060019050919050565b6000828211151515610f6157600080fd5b818303905092915050565b60008060009054906101000a900473ffffffffffffffffffffffffffffffffffffffff16905090565b60008082111515610fa557600080fd5b8183811515610fb057fe5b04905092915050565b6000600160009054906101000a900473ffffffffffffffffffffffffffffffffffffffff1673ffffffffffffffffffffffffffffffffffffffff166370a08231306040518263ffffffff167c0100000000000000000000000000000000000000000000000000000000028152600401808273ffffffffffffffffffffffffffffffffffffffff1673ffffffffffffffffffffffffffffffffffffffff168152602001915050602060405180830381600087803b15801561107857600080fd5b505af115801561108c573d6000803e3d6000fd5b505050506040513d60208110156110a257600080fd5b8101908080519060200190929190505050905090565b60008060006110ce6110c861061e565b85610f50565b91506110ea846110e56110df610fb9565b85610f95565b611414565b9050600160009054906101000a900473ffffffffffffffffffffffffffffffffffffffff1673ffffffffffffffffffffffffffffffffffffffff166323b872dd8630846040518463ffffffff167c0100000000000000000000000000000000000000000000000000000000028152600401808473ffffffffffffffffffffffffffffffffffffffff1673ffffffffffffffffffffffffffffffffffffffff1681526020018373ffffffffffffffffffffffffffffffffffffffff1673ffffffffffffffffffffffffffffffffffffffff1681526020018281526020019350505050602060405180830381600087803b1580156111e557600080fd5b505af11580156111f9573d6000803e3d6000fd5b505050506040513d602081101561120f57600080fd5b81019080805190602001909291905050501515611294576040517f08c379a000000000000000000000000000000000000000000000000000000000815260040180806020018281038252601a8152602001807f44656d756c61205472616e73616374696f6e204661696c65642100000000000081525060200191505060405180910390fd5b600260009054906101000a900473ffffffffffffffffffffffffffffffffffffffff1673ffffffffffffffffffffffffffffffffffffffff166340c10f1986836040518363ffffffff167c0100000000000000000000000000000000000000000000000000000000028152600401808373ffffffffffffffffffffffffffffffffffffffff1673ffffffffffffffffffffffffffffffffffffffff16815260200182815260200192505050602060405180830381600087803b15801561135957600080fd5b505af115801561136d573d6000803e3d6000fd5b505050506040513d602081101561138357600080fd5b81019080805190602001909291905050501515611408576040517f08c379a00000000000000000000000000000000000000000000000000000000081526004018080602001828103825260168152602001807f4c70205472616e73616374696f6e204661696c6564210000000000000000000081525060200191505060405180910390fd5b60019250505092915050565b600081830290506000831480611434575081838281151561143157fe5b04145b151561143f57600080fd5b92915050565b6000806000806000600260009054906101000a900473ffffffffffffffffffffffffffffffffffffffff1673ffffffffffffffffffffffffffffffffffffffff166370a08231886040518263ffffffff167c0100000000000000000000000000000000000000000000000000000000028152600401808273ffffffffffffffffffffffffffffffffffffffff1673ffffffffffffffffffffffffffffffffffffffff168152602001915050602060405180830381600087803b15801561150a57600080fd5b505af115801561151e573d6000803e3d6000fd5b505050506040513d602081101561153457600080fd5b8101908080519060200190929190505050935061155b611555856064610f95565b87611414565b9250600260009054906101000a900473ffffffffffffffffffffffffffffffffffffffff1673ffffffffffffffffffffffffffffffffffffffff166318160ddd6040518163ffffffff167c0100000000000000000000000000000000000000000000000000000000028152600401602060405180830381600087803b1580156115e357600080fd5b505af11580156115f7573d6000803e3d6000fd5b505050506040513d602081101561160d57600080fd5b81019080805190602001909291905050509150600260009054906101000a900473ffffffffffffffffffffffffffffffffffffffff1673ffffffffffffffffffffffffffffffffffffffff16639dc29fac88856040518363ffffffff167c0100000000000000000000000000000000000000000000000000000000028152600401808373ffffffffffffffffffffffffffffffffffffffff1673ffffffffffffffffffffffffffffffffffffffff16815260200182815260200192505050602060405180830381600087803b1580156116e557600080fd5b505af11580156116f9573d6000803e3d6000fd5b505050506040513d602081101561170f57600080fd5b81019080805190602001909291905050501515611794576040517f08c379a000000000000000000000000000000000000000000000000000000000815260040180806020018281038252600f8152602001807f4c50204275726e204661696c656421000000000000000000000000000000000081525060200191505060405180910390fd5b6117a96117a384600354611414565b83610f95565b90508673ffffffffffffffffffffffffffffffffffffffff166108fc6117e16117d9846117d461061e565b611414565b600354610f95565b9081150290604051600060405180830381858888f19350505050151561186f576040517f08c379a000000000000000000000000000000000000000000000000000000000815260040180806020018281038252601c8152602001807f457468657265756d205472616e73616374696f6e204661696c6564210000000081525060200191505060405180910390fd5b600160009054906101000a900473ffffffffffffffffffffffffffffffffffffffff1673ffffffffffffffffffffffffffffffffffffffff1663a9059cbb886118ca6118c2856118bd610fb9565b611414565b600354610f95565b6040518363ffffffff167c0100000000000000000000000000000000000000000000000000000000028152600401808373ffffffffffffffffffffffffffffffffffffffff1673ffffffffffffffffffffffffffffffffffffffff16815260200182815260200192505050602060405180830381600087803b15801561194f57600080fd5b505af1158015611963573d6000803e3d6000fd5b505050506040513d602081101561197957600080fd5b810190808051906020019092919050505015156119fe576040517f08c379a000000000000000000000000000000000000000000000000000000000815260040180806020018281038252601a8152602001807f44656d756c61205472616e73616374696f6e204661696c65642100000000000081525060200191505060405180910390fd5b600194505050505092915050565b6000806000611a22611a1c61061e565b85610f50565b9150611a4984611a44611a3e611a36610fb9565b600354611414565b85610f95565b611414565b9050611a53610fb9565b611a5f82600354610f95565b101515611ad4576040517f08c379a00000000000000000000000000000000000000000000000000000000081526004018080602001828103825260178152602001807f496e73756666696369656e74204c69717569646974792100000000000000000081525060200191505060405180910390fd5b600160009054906101000a900473ffffffffffffffffffffffffffffffffffffffff1673ffffffffffffffffffffffffffffffffffffffff1663a9059cbb86611b1f84600354610f95565b6040518363ffffffff167c0100000000000000000000000000000000000000000000000000000000028152600401808373ffffffffffffffffffffffffffffffffffffffff1673ffffffffffffffffffffffffffffffffffffffff16815260200182815260200192505050602060405180830381600087803b158015611ba457600080fd5b505af1158015611bb8573d6000803e3d6000fd5b505050506040513d6020811015611bce57600080fd5b81019080805190602001909291905050501515611c53576040517f08c379a000000000000000000000000000000000000000000000000000000000815260040180806020018281038252601a8152602001807f44656d756c61205472616e73616374696f6e204661696c65642100000000000081525060200191505060405180910390fd5b60019250505092915050565b60008183019050828110151515611c7557600080fd5b92915050565b60008060009054906101000a900473ffffffffffffffffffffffffffffffffffffffff1673ffffffffffffffffffffffffffffffffffffffff163373ffffffffffffffffffffffffffffffffffffffff16141515611d41576040517f08c379a00000000000000000000000000000000000000000000000000000000081526004018080602001828103825260168152602001807f596f7520617265206e6f7420746865206f776e6572210000000000000000000081525060200191505060405180910390fd5b816000806101000a81548173ffffffffffffffffffffffffffffffffffffffff021916908373ffffffffffffffffffffffffffffffffffffffff160217905550600190509190505600a165627a7a723058201a85a91e460a7f6ba342d25f30c72a596a17ca19a60918719789feffbf41d39e0029",
  "source": "pragma solidity ^0.4.24;\r\n\r\nimport \"./SafeMath.sol\";\r\nimport \"./Demula.sol\";\r\nimport \"./DYLANSwapLP.sol\";\r\nimport \"./Ownable.sol\";\r\n\r\n/*\r\nFUNCTIONS NEEEDED:\r\n\r\nprice of eth; gets balance of eth in this sol contract and calls getbalanceof() on demula.sol to get balance of dem in this sol contract\r\nprice of dem; gets balance of eth in this sol contract and calls getbalanceof() on demula.sol to get balance of dem in this sol contract\r\nget dem liquity; gets balance of dem in this sol contract with getbalanceof() on demula.sol\r\nget eth liquitity; gets balance of eth in this sol contract\r\nremove liquidity; calls function on lp token to burn user lp token; use send() from this contract to send eth back to user and call transfer() on demula.sol to send dem back to user\r\nswap dem for eth; call function on demula.sol to send user's demula to this sol contract and then use send() to send eth back to user\r\n\r\n\r\n\r\nthe following functions will be on blockchaindataholder.js because i cant call function to remove eth from user with solidity, i need web3 to do that\r\nadd liquidity; web3 in bdh.js will call function to send user's eth to this sol cotract, and then call function on demula.sol to send user's demula to this sol contract, then mint lp tokens which is equal to amount of tokens added and send to user \r\nswap eth for dem; web3 in bdh.js will call function to send user's eth to this sol contract, make sure it went through because it returns bool, and then call transfer() on demula.sol to send dem back to user\r\n*/\r\n\r\ncontract DYLANSwapInterface {\r\n    function SetLPAddress(address dylanSwaplp) public returns (bool success);\r\n    function DEMLiquidity() public constant returns (uint);\r\n    function ETHLiquidity() public constant returns (uint);\r\n    function CreateLiquidity(address user, uint DEMAmount) public returns (bool success);\r\n    function AddLiquidity(address user, uint ETHAmount) public returns (bool success);\r\n    function RemoveLiquidity(address user, uint percent) public returns (bool success);\r\n    function DEMToETH(address user, uint DEMAmount) public returns (bool success);\r\n    function ETHToDEM(address user, uint ETHAmount) public returns (bool success);\r\n    function demula() external constant returns (address);\r\n    function dylanSwapLP() external constant returns (address);\r\n}\r\n\r\ncontract DYLANSwap is DYLANSwapInterface, SafeMath, Ownable {\r\n    address public Owner;\r\n    address private _Demula;\r\n    address private _DYLANSwapLP;\r\n    bool private LPTokenSet;\r\n    uint Multiplier;\r\n \r\n    constructor(address demula) public \r\n    {\r\n        Owner = msg.sender;\r\n        _Demula = demula;\r\n        Multiplier = 1000000000000000000000000;\r\n\r\n        /*use multiplier in order to make it so that if amounttoremove/lptotal supply has values after decimal point, \r\n        it will not cut them all off, allowing for an accurate calculation. This makers it so it will only round after \r\n        being divided by multiplier. For example, if amounttoremove/lptotal supply was 1/9, the value would result in 0.111111 \r\n        and so on, which solidity would round to 0 without the multiplier. The multiplier makes it \r\n        111,111,111,111,111,111,111,111.111 with infinite 1's after the decimal place, which solidity will automatically \r\n        cut off. This value could then accurately be used to multiply by ethliquidity(), and rounded when dividing by multiplier.*/\r\n    }\r\n    function SetLPAddress(address dylanSwaplp) public returns (bool success) \r\n    {\r\n        require(!LPTokenSet, 'LP Already Set!');\r\n       _DYLANSwapLP = dylanSwaplp;\r\n       LPTokenSet = true;\r\n       return true;\r\n    }\r\n    function DEMLiquidity() public constant returns (uint) \r\n    {\r\n        return Demula(_Demula).balanceOf(address(this));\r\n    }\r\n    function ETHLiquidity() public constant returns (uint)\r\n    {\r\n        return address(this).balance;\r\n    }\r\n    function CreateLiquidity(address user, uint DEMAmount) public returns (bool success) \r\n    {\r\n        uint UserDEMReturn = safeSub(DEMAmount, 100000000);\r\n        require(Demula(_Demula).transferFrom(user, address(this), DEMAmount), 'Demula Transaction Failed!');\r\n        require(DYLANSwapLP(_DYLANSwapLP).mint(address(this), 100000000), 'LP Transaction Part 1 Failed!');\r\n        require(DYLANSwapLP(_DYLANSwapLP).mint(user, UserDEMReturn), 'LP Transaction Part 2 Failed!');\r\n        return true;\r\n    }\r\n    function AddLiquidity(address user, uint ETHAmount) public returns (bool success) \r\n    {\r\n        uint ETHLiquidityBeforeETHTransaction = safeSub(ETHLiquidity(), ETHAmount);\r\n        uint DEMAmount = safeMul(ETHAmount, safeDiv(DEMLiquidity(), ETHLiquidityBeforeETHTransaction));\r\n        require(Demula(_Demula).transferFrom(user, address(this), DEMAmount), 'Demula Transaction Failed!');\r\n        require(DYLANSwapLP(_DYLANSwapLP).mint(user, DEMAmount), 'Lp Transaction Failed!');\r\n        return true;\r\n    }\r\n    function RemoveLiquidity(address user, uint percent) public returns (bool success)\r\n    {\r\n        uint UserLpBalance = DYLANSwapLP(_DYLANSwapLP).balanceOf(user);\r\n        uint AmountToRemove = safeMul(safeDiv(UserLpBalance, 100), percent);\r\n        uint LPTotalSupplyBeforeBurn = DYLANSwapLP(_DYLANSwapLP).totalSupply();\r\n        require(DYLANSwapLP(_DYLANSwapLP).burn(user, AmountToRemove), 'LP Burn Failed!');\r\n        uint SharePercentWithMultiplier = safeDiv(safeMul(AmountToRemove, Multiplier), LPTotalSupplyBeforeBurn); \r\n        require(user.send(safeDiv(safeMul(SharePercentWithMultiplier, ETHLiquidity()), Multiplier)), 'Ethereum Transaction Failed!');\r\n        require(Demula(_Demula).transfer(user, safeDiv(safeMul(SharePercentWithMultiplier, DEMLiquidity()), Multiplier)), 'Demula Transaction Failed!');\r\n        return true;\r\n    }\r\n    function DEMToETH(address user, uint DEMAmount) public returns (bool success) \r\n    {\r\n        uint ETHOutputWithMultiplier = safeMul(DEMAmount, safeDiv(safeMul(ETHLiquidity(), Multiplier), DEMLiquidity()));\r\n        require(safeDiv(ETHOutputWithMultiplier, Multiplier)<ETHLiquidity(), 'Insufficient Liquidity!');\r\n        require(Demula(_Demula).transferFrom(user, address(this), DEMAmount), 'Demula Transaction Failed!');\r\n        require(user.send(safeDiv(ETHOutputWithMultiplier, Multiplier)), 'Ethereum Transaction Failed!');\r\n        return true;\r\n    }\r\n    function ETHToDEM(address user, uint ETHAmount) public returns (bool success) \r\n    {\r\n        uint ETHLiquidityBeforeETHTransaction = safeSub(ETHLiquidity(), ETHAmount);\r\n        uint DEMOutputWithMultiplier = safeMul(ETHAmount, safeDiv(safeMul(DEMLiquidity(), Multiplier), ETHLiquidityBeforeETHTransaction));\r\n        require(safeDiv(DEMOutputWithMultiplier, Multiplier)<DEMLiquidity(), 'Insufficient Liquidity!');\r\n        require(Demula(_Demula).transfer(user, safeDiv(DEMOutputWithMultiplier, Multiplier)), 'Demula Transaction Failed!');\r\n        return true;\r\n    }\r\n    function transferOwnership(address newOwner) public returns (bool success) \r\n    {\r\n        require(msg.sender==Owner, 'You are not the owner!');\r\n        Owner = newOwner;\r\n        return true;\r\n    }\r\n    function Owner() external constant returns (address)\r\n    {\r\n        return Owner;\r\n    }\r\n    function demula() external constant returns (address)\r\n    {\r\n        return _Demula;\r\n    }\r\n    function dylanSwapLP() external constant returns (address)\r\n    {\r\n        return _DYLANSwapLP;\r\n    }\r\n    function () public payable {\r\n        \r\n    }\r\n}",
  "sourcePath": "C:\\Projects\\DYLANSwap\\src\\contracts\\DYLANSwap.sol",
  "compiler": {
    "name": "solc",
    "version": "0.4.24+commit.e67f0147.Emscripten.clang"
  },
  "schemaVersion": "3.4.4",
  "updatedAt": "2022-08-10T00:42:25.140Z",
  "devdoc": {
    "methods": {}
  },
  "userdoc": {
    "methods": {}
  }
}